:020000006D2869
:10000800DF00030E8301A7000A08A8008A01500830
:10001800A0000B1D26288312051C21282308A200F6
:100028002308003A031D1B282208810020282208E3
:10003800FF3C81008512051025282208810005143F
:1000480085160B1183120C1C3628A60A17308E0051
:10005800FC308F0026082102031835280430850655
:10006800A6010C100B1C442885193F282930A40030
:100078000130A50043282330A4000330A5000B104D
:100088002008D00028088A00270E8300DF0E5F0EA4
:0200980009005D
:0C009A0007308312DD00DD0B5028080049
:1000A6000D308312DC00FB30DD00DD0B5828DC0B45
:0800B6005828000000000800BA
:1000BE0083121F1864281F144D209F149F18652843
:0C00CE001E08AA0083161E08A9000800E6
:1000DA00073083129900023083169F000510851499
:1000EA00051185128312051105148512FA30A10033
:1000FA00A201A301A6015030831681008B16853018
:10010A0083129F000B171016901083160C141730C9
:10011A0083128E00FC308F00831696158B15A90169
:10012A00AA018B1783121F1410149F1453208519C8
:10013A00A3282930A4000130A500A7282330A40051
:10014A000330A5005F202A082502031DAE282908CE
:10015A0024020318D1282308003C0318B628A30355
:10016A00B728D02883128519C0289230DD00DD0B0C
:10017A00BC280000C6283530DD00DD0BC22800008F
:10018A0000005F202A082502031DCD282908240221
:10019A000318D028B028F92825082A02031DD728D1
:1001AA00240829020318F928FF3023020318DF283C
:1001BA00A30AE028F92883128519E9289230DD007C
:1001CA00DD0BE5280000EF283530DD00DD0BEB28DC
:1001DA00000000005F2025082A02031DF6282408D3
:1001EA0029020318F928D9282A08003AFF30031DE2
:1001FA000030D1002908113CFF30031C0030D00028
:10020A005108D00503190C294030A10015292308EB
:10021A00FF3A031D13298030A1001529F030A100EF
:04022A00A7281629C2
:02400E00D431AB
:00000001FF
