:02000000712865
:10000800DF00030E8301AE000A08AD008A01500824
:10001800A0000B1D26288312051C21282308A200F6
:100028002308003A031D1B282208810020282208E3
:10003800FF3C81008512051025282208810005143F
:1000480085160B1183120C1C4428A70A17308E0042
:10005800FC308F0027082102031835280430850654
:10006800A701AA0A2A08FF3A031D4328A90A290852
:100078000C3A031D4328281C4228A301A9010C108F
:100088000B1C522885194D282930A5000130A600DF
:1000980051282330A5000330A6000B102008D000FB
:0E00A8002D088A002E0E8300DF0E5F0E090069
:1000B6000D308312DC00FB30DD00DD0B6028DC0B2D
:0800C6006028000000000800A2
:1000CE0083129F149F1869281E08AC0083161E0801
:0400DE00AB0008006B
:1000E2003430831690000730831299000230831651
:1000F2009F00051085140511851283120511051440
:100102008512FA30A100A201A301A70128105030E4
:10011200831681008B16853083129F000B171016F1
:10012200901083160C14173083128E00FC308F004F
:10013200AB01AC01831696158B158B1783121F1416
:1001420010149F145B208519AB282930A5000130BB
:10015200A600AF282330A5000330A60067202C0894
:100162002602031DB6282B0825020318012923089D
:10017200003C0318BE28A303BF2800298312851957
:10018200DD28A40167201D302507D10026080318A9
:10019200013ED2002C085202031DD1282B08510225
:1001A2000318D628A3016720DC282408053A03197E
:1001B200DC28A40AC328F728A40167201D302507DC
:1001C200D10026080318013ED2002C085202031D5A
:1001D200EC282B0851020318F128A3016720F72805
:1001E2002408003A0319F728A40ADE282C0826025C
:1001F200031DFD282B08250203180029B8286029B1
:1002020026082C02031D072925082B020318602942
:10021200FF30230203181029A30A281012292814D8
:100222006029831285193729A40167201D3025070B
:10023200D10026080318013ED2002C085202031DE9
:1002420024292B08510203183029A30CA313A30C51
:10025200A313A30CA313A30CA3136720362924080A
:10026200053A03193629A40A16295729A401672039
:100272001D302507D10026080318013ED2002C08A4
:100282005202031D46292B08510203185129A30CBF
:10029200A313A30CA313A30CA313A30CA3136720F0
:1002A2002408003A03195729A40A382926082C02DF
:1002B200031D5D2925082B020318602909292C0832
:1002C200003AFF30031D0030D1002B08113CFF30F3
:1002D200031C0030D0005108D005031973294030A7
:1002E200A1007C292308FF3A031D7A298030A1004E
:0A02F2007C29F030A100AF287D291F
:02400E00D431AB
:00000001FF
