:02000000632873
:10000800DF00030E8301A7000A08A8008A01500830
:10001800A0000B1D26288312051C21282308A200F6
:100028002308003A031D1B282208810020282208E3
:10003800FF3C81008512051025282208810005143F
:1000480085160B1183120C1C3628A60A17308E0051
:10005800FC308F0026082102031835280430850655
:10006800A6010C100B1C442885193F282930A40030
:100078000130A50043282330A4000330A5000B104D
:100088002008D00028088A00270E8300DF0E5F0EA4
:0200980009005D
:10009A000D308312DC00FB30DD00DD0B5228DC0B57
:0800AA005228000000000800CC
:1000B20083129F149F185B281E08AA0083161E082D
:0400C200A900080089
:1000C600073083129900023083169F008530831211
:1000D6009F008316051085140511851283120511DC
:1000E60005148512FA30A100A201A301A601503021
:1000F600831681008B160B17831210169010831629
:100106000C14173083128E00FC308F008316961560
:100116008B15A901AA018B1783121F1410149F14A3
:100126004D2085199B282930A4000130A5009F2861
:100136002330A4000330A50059202A082502031DF8
:10014600A628290824020318AE282308003C031811
:10015600AD28A303BB2825082A02031DB4282408BA
:1001660029020318BB28FF3023020318BB28A30A61
:100176002A08003AFF30031D0030D1002908113C3F
:10018600FF30031C0030D0005108D0050319CE28DB
:100196004030A100D7282308FF3A031DD528803018
:0C01A600A100D728F030A1009F28D82825
:02400E00D431AB
:00000001FF
