:02000000632873
:10000800DF00030E8301A8000A08A9008A0150082E
:10001800A0000B1D26288312051C21282308A200F6
:100028002308003A031D1B282208810020282208E3
:10003800FF3C81008512051025282208810005143F
:1000480085160B1183120C1C3628A60A17308E0051
:10005800FC308F0026082102031835280430850655
:10006800A6010C100B1C442885193F282930A40030
:100078000130A50043282330A4000330A5000B104D
:100088002008D00029088A00280E8300DF0E5F0EA2
:0200980009005D
:10009A000D308312DC00FB30DD00DD0B5228DC0B57
:0800AA005228000000000800CC
:1000B20083129F149F185B281E08AB0083161E082C
:0400C200AA00080088
:1000C600343083169000073083129900023083166D
:1000D6009F00853083129F00831605108514051135
:1000E60085128312051105148512FA30A100A201AA
:1000F600A301A60127105030831681008B160B171B
:1001060083121016901083160C14173083128E006B
:10011600FC308F00831696158B15AA01AB018B1741
:1001260083121F1410149F144D2085199F282930FF
:10013600A4000130A500A3282330A4000330A500A5
:1001460059202B082502031DAA282A082402031871
:10015600B32827102308003C0318B228A303C1289C
:100166002B082502031DB9282A082402031CC128CE
:100176002714FF3023020318C128A30A2B08003ACC
:10018600FF30031D0030D1002A08113CFF30031C4C
:100196000030D0005108D0050319D4284030A10002
:1001A600DD282308FF3A031DDB288030A100DD2867
:0801B600F030A100A328DE28AF
:02400E00D431AB
:00000001FF
