:02000000BE2818
:10000800DF00030E8301B7000A08B2008A01500816
:10001800A0000B1D26288312051C21283408B500D2
:100028003408003A031D1B283508810020283508AC
:10003800FF3C81008512051025283508810005142C
:1000480085160B1183120C1C2F28B10A38308E002C
:10005800FC308F000C102008D00032088A00370EC0
:080068008300DF0E5F0E0900AA
:0C00700007308312DD00DD0B3B28080088
:10007C000D308312DC00FB30DD00DD0B4328DC0B84
:08008C004328000000000800F9
:1000940083123A08003C03186B283108D20039084F
:1000A400840000083102031C5C283908840000081D
:1000B400D2026428390884000008FF3CD000D00A2A
:1000C4005008D2073A085202FF30031C0030D10016
:1000D4006D28FF30D10051080319742839088400B1
:0A00E400310880005108D000080028
:1000EE00C33083129F05F0309F05F03083169F04B6
:1000FE0083129F173908D000D00D5010D00D50101C
:10010E0050089F041F1438209F149F1C9028000035
:10011E008C281F101E08D100D00183161E08500413
:10012E00BA005108BB000030BB043A08D0003B08AF
:04013E00D1000800E4
:1001420083120313D801D9011030DC00510DD80DF0
:10015200D90D5408D8025508031C550FD9020318AB
:10016200B9285408D80755080318550FD9070310A2
:0A017200D00DD10DDC0BA72808000A
:10017C00073083129900023083169F0005108514F6
:10018C00051185128312051105148512FA30B3007E
:10019C00FF30B600B501B401B0011C30A200A101C2
:1001AC00B101A401A30150308316810015168B16E2
:1001BC000B178312901083160C14383083128E0098
:1001CC00FC308F0010148B17A501AD01AC013E2043
:1001DC0083128519F6282930AE000130AF00FA28B9
:1001EC002330AE000330AF003009B8002D30B90019
:1001FC002308BA004A203808D00503198129013098
:10020C00B90077205008AA005108AB003408003C14
:10021C00FF3003180030D30000305102031D1829A1
:10022C0011305002FF3003180030D2005208530531
:10023C00D0002108D00503192B29B401FF30B000E0
:10024C003108A7000A30A60080292F082B02031DB5
:10025C0031292E082A02031850292A082E02D00010
:10026C002B08031C013E2F02D1000E30D400D50107
:10027C00A1205008A8005108A9002808FF3CD10073
:10028C0034085102031C4D292808B4074F29FF30AC
:10029C00B40073292B082F02031D56292A082E029D
:1002AC00031873292E082A02D0002F08031C013EC4
:1002BC002B02D1000E30D400D501A1205008A8008B
:1002CC005108A90028083402031C6F292808B4021D
:1002DC007029B401051A7329B4012C30B900220815
:1002EC00BA004A205008A100500803197E29A20127
:1002FC00F030B30098293008031998292730B90039
:10030C006430BA004A20500803199829A60326081D
:10031C00003A031D9829B0013108AC000E30A20040
:10032C00A101B4013408FF3AFF30031D0030D100A5
:10033C003408003AFF30031D0030D0005108D004BF
:10034C000319C2298312051AAD295414AE2954106D
:10035C003408003AFF30031D0030D100D00154188E
:10036C00D00A5108D0050319C0290130A400F0307F
:10037C00B300C2298030B3003609D0000319CA2952
:10038C00FF30B6003108A5002530B9003308BA009B
:10039C004A203608D0050319DF292408003C03182D
:1003AC00D829A4032408003A031DDF298312043042
:0603BC008506EE28E02991
:02400E00D431AB
:00000001FF
