:020000006D2869
:10000800DF00030E8301A8000A08A7008A01500830
:10001800A0000B1D26288312051C21282308A200F6
:100028002308003A031D1B282208810020282208E3
:10003800FF3C81008512051025282208810005143F
:1000480085160B1183120C1C3628A60A17308E0051
:10005800FC308F0026082102031835280430850655
:10006800A6010C100B1C442885193F282930A40030
:100078000130A50043282330A4000330A5000B104D
:100088002008D00027088A00280E8300DF0E5F0EA4
:0200980009005D
:0C009A0007308312DD00DD0B5028080049
:1000A6000D308312DC00FB30DD00DD0B5828DC0B45
:0800B6005828000000000800BA
:1000BE0083121F1864281F144D209F149F18652843
:0C00CE001E08AA0083161E08A9000800E6
:1000DA00073083129900023083169F0085308312FD
:1000EA009F008316051085140511851283120511C8
:1000FA0005148512FA30A100A201A301A60150300D
:10010A00831681008B160B17831210169010831614
:10011A000C14173083128E00FC308F00831696154C
:10012A008B15A901AA018B1783121F1410149F148F
:10013A0053208519A5282930A4000130A500A92833
:10014A002330A4000330A5005F202A082502031DDE
:10015A00B028290824020318D7282308003C0318CA
:10016A00B728A3030E302407D10025080318013E3F
:10017A00D20052082A02031DC42851082902031C6E
:10018A00D6282308003C0318CB28A3034D205F2060
:10019A002A082502031DD328290824020318D62871
:1001AA00C628F72825082A02031DDD282408290263
:1001BA000318F728FF3023020318E528A30AF728B3
:1001CA002A08003AFF30031D0030D100923029027C
:1001DA00FF3003180030D0005108D0050319F72862
:1001EA0083121F102A08003AFF30031D0030D10085
:1001FA002908113CFF30031C0030D0005108D005FB
:10020A0003190A294030A10013292308FF3A031DC4
:10021A0011298030A1001329F030A100A92814293E
:02400E00D431AB
:00000001FF
