:02000000632873
:10000800DF00030E8301AA000A08A7008A0150082E
:10001800A0000B1D26288312051C20282308A600F3
:100028002308003A031D1B28733081001F28260867
:10003800FF3C8100051024282608733E8100051422
:100048000B11362883120C1C3628A40A17308E0090
:10005800FC308F0024082502031835280430850653
:10006800A4010C100B1C442885193F282930A10035
:100078000130A20043282330A1000330A2000B1056
:100088002008D00027088A002A0E8300DF0E5F0EA2
:0200980009005D
:10009A000D308312DC00FB30DD00DD0B5228DC0B57
:0800AA005228000000000800CC
:1000B20083129F149F185B281E08A90083161E082E
:0400C200A80008008A
:1000C600343083169000073083129900123083165D
:1000D6009F00051085140511831205110514FA30C9
:1000E600A500A601A301A4015030831681008B163A
:1000F600853083129F000B171016901083160C1470
:10010600173083128E00FC308F00A801A9018316D8
:1001160096158B158B1783121F1410149F144D20E0
:1001260085199A282930A1000130A2009E28233083
:10013600A1000330A200592029082202031DA52888
:10014600280821020318CA282308003C0318AD28F2
:10015600A303AE28C92859201D302107D100220843
:100166000318013ED20029085202031DBC282808A4
:1001760051020318C028A301592029082202031D91
:10018600C628280821020318C928A728FB28220800
:100196002902031DD028210828020318FB288C30C9
:1001A60023020318D828A30AD928FB2859201D3072
:1001B6002107D10022080318013ED2002908520265
:1001C600031DE728280851020318F228A30CA313DD
:1001D600A30CA313A30CA313A30CA3135920220847
:1001E6002902031DF828210828020318FB28D22813
:1001F6002908003AFF30031D0030D1002808113CC1
:10020600FF30031C0030D0005108D00503190E2919
:100216004030A500172923088C3A031D1529803084
:0C022600A5001729F030A5009E2818291B
:02400E00D431AB
:00000001FF
