:020000009F2837
:10000800DF00030E8301B2000A08B3008A0150081A
:10001800A0000B1D24288312051C20282508A400F5
:100028002508003A031D1B28240881001F282408DE
:10003800FF3C8100051023282408810005140B11BA
:1000480083120C1C2D28B40A38308E00FC308F0027
:100058000C102008D00033088A00320E8300DF0E0F
:040068005F0E09001E
:0C006C0007308312DD00DD0B392808008E
:100078000D308312DC00FB30DD00DD0B4128DC0B8A
:080088004128000000000800FF
:10009000C33083129F05F0309F05F03083169F0414
:1000A00083129F173808D000D00D5010D00D50107B
:1000B00050089F041F1436209F149F1C61280000C5
:1000C0005D281F101E08D100D00183161E085004A1
:1000D000B9005108BA000030BA043908D0003A0813
:0400E000D100080043
:1000E40083123908003C031893283408D2003808D6
:1000F400840000083402031C8428380884000008A3
:10010400D2028C28380884000008FF3CD000D00AB2
:100114005008D20739085202FF30031C0030D100C6
:100124009528FF30D100510803199C283808840011
:0A013400340880005108D0000800D4
:10013E00073083129900023083169F000510851434
:10014E0005118512831205110514FA30B500FF3022
:10015E00B000A401A501A6011C30A300A101B401A9
:10016E00A20150308316810015168B160B178312C1
:10017E00901083160C14383083128E00FC308F00D2
:10018E0010148B17A901A801A7013C208519D828A6
:10019E005C30AE000130AF002930AC000130AD0054
:1001AE00E028AE30AE000330AF002530AC00033097
:1001BE00AD000130B80048205008AA005108AB002D
:1001CE002D085102031DED282C085002031CF228A5
:1001DE0083128516F428831285122609B70028305B
:1001EE00B8000130B90072203708D00503194A292A
:1001FE002508003CFF3003180030D10000302B02E0
:10020E00031D0B2915302A02FF3003180030D000D1
:10021E005108D0052108D00503191D29A501FF306D
:10022E00A6003408B6000A30B10049292F082B0267
:10023E00031D23292E082A0203182B29FF3025021D
:10024E0003182A29A50A3C292B082F02031D312940
:10025E002A082E0203183C292508003C03183829C9
:10026E00A5038312051A3C29A5012730B8002308DF
:10027E00B90072205008A100500803194729A301A4
:10028E00F030B50061292608031961293630B8000F
:10029E006430B9007220500803196129B103310886
:1002AE00003A031D6129A6013408A7000E30A300F1
:1002BE00A101A5012508FF3AFF30031D0030D10032
:1002CE002508003AFF30031D0030D0005108D0043D
:1002DE0003198B298312051A762953147729531083
:1002EE002508003AFF30031D0030D100D00153180D
:1002FE00D00A5108D005031989290130A200F03027
:10030E00B5008B298030B5003009D0000319932930
:10031E00FF30B0003408A9002930B8003508B90004
:10032E0072203008D0050319A8292208003C0318B2
:10033E00A129A2032208003A031DA8298312043022
:06034E008506E028A92944
:02400E00D431AB
:00000001FF
