:020000009F2837
:10000800DF00030E8301B5000A08B4008A01500816
:10001800A0000B1D24288312051C20282808B900DD
:100028002808003A031D1B28390881001F283908B1
:10003800FF3C8100051023283908810005140B11A5
:1000480083120C1C2D28B60A38308E00FC308F0025
:100058000C102008D00034088A00350E8300DF0E0B
:040068005F0E09001E
:0C006C0007308312DD00DD0B392808008E
:100078000D308312DC00FB30DD00DD0B4128DC0B8A
:080088004128000000000800FF
:1000900083123C08003C031869283608D2003B084C
:1000A000840000083602031C5A283B08840000081C
:1000B000D20262283B0884000008FF3CD000D00A2E
:1000C0005008D2073C085202FF30031C0030D10018
:1000D0006B28FF30D1005108031972283B088400B7
:0A00E000360880005108D000080027
:1000EA00C33083129F05F0309F05F03083169F04BA
:1000FA0083129F173B08D000D00D5010D00D50101E
:10010A0050089F041F1436209F149F1C8E2800003D
:10011A008A281F101E08D100D00183161E08500419
:10012A00BC005108BD000030BD043C08D0003D08A9
:04013A00D1000800E8
:10013E00073083129900023083169F000510851434
:10014E0005118512831205110514FA30B800FF301F
:10015E00B700B901A801A7013830AA00A901B6015C
:10016E00A201A10151308316810015168B160B17B3
:10017E008312901083160C14383083128E00FC30CC
:10018E008F0010148B17AB01AE01AD01AC01B101A4
:10019E0085123C208519DC285C30AF000130B000A0
:1001AE005C30A3000130A400E428AE30AF00033071
:1001BE00B000AE30A3000330A4002C30BB001430CE
:1001CE00BC00482050080319FB2821080F3C0318D7
:1001DE00F3281030A102F428A101B10A3108C83C5D
:1001EE000318FB28A101B1010130BB007520500896
:1001FE00A5005108A60024085102031D0829230852
:10020E005002031C0D29831285162229103021025B
:10021E0003181429831285121D292709D0000319EA
:10022E001B29831285161D2983128512FF30210288
:10023E0003182229A10A2709BA002E30BB0001306B
:10024E00BC0048203A08D005031980290130BB00B4
:10025E0075205008A5005108A6002808003CFF3064
:10026E0003180030D30000305102031D4029153011
:10027E005002FF3003180030D20052085305D00050
:10028E002908D00503195329A801FF30A700360805
:10029E00B2000A30B3007F2930082602031D592907
:1002AE002F08250203186129FF3028020318602940
:1002BE00A80A722926083002031D672925082F0275
:1002CE00031872292808003C03186E29A80383120C
:1002DE00051A7229A8012D30BB002A08BC0048203F
:1002EE005008A900500803197D29AA01F030B80062
:1002FE009929270803199929831285123230BB00D8
:10030E006430BC004820500803199929B303330800
:10031E00003A031D9929A7013608AD001C30AA002A
:10032E00A901A8012808FF3AFF30031D0030D100B3
:10033E002808003AFF30031D0030D0005108D004C9
:10034E000319C3298312051AAE295414AF29541068
:10035E002808003AFF30031D0030D100D001541898
:10036E00D00A5108D0050319C1290130A200F0307E
:10037E00B800C3298030B8003709D0000319CB2943
:10038E00FF30B7003608AB002B30BB003808BC007E
:10039E0048203708D0050319E0292208003C03182D
:1003AE00D929A2032208003A031DE0298312043042
:0603BE008506E428E12998
:02400E00D431AB
:00000001FF
