:020000009F2837
:10000800DF00030E8301B1000A08B2008A0150081C
:10001800A0000B1D24288312051C20282408AF00EB
:100028002408003A031D1B282F0881001F282F08C9
:10003800FF3C8100051023282F08810005140B11AF
:1000480083120C1C2D28B00A38308E00FC308F002B
:100058000C102008D00032088A00310E8300DF0E11
:040068005F0E09001E
:0C006C0007308312DD00DD0B392808008E
:100078000D308312DC00FB30DD00DD0B4128DC0B8A
:080088004128000000000800FF
:1000900083123708003C031869283008D20036085C
:1000A000840000083002031C5A2836088400000827
:1000B000D2026228360884000008FF3CD000D00A33
:1000C0005008D20737085202FF30031C0030D1001D
:1000D0006B28FF30D10051080319722836088400BC
:0A00E000300880005108D00008002D
:1000EA00C33083129F05F0309F05F03083169F04BA
:1000FA0083129F173608D000D00D5010D00D501023
:10010A0050089F041F1436209F149F1C8E2800003D
:10011A008A281F101E08D100D00183161E08500419
:10012A00B7005108B8000030B8043708D0003808C2
:04013A00D1000800E8
:10013E00073083129900023083169F000510851434
:10014E000511831205110514FA30B300FF30B40007
:10015E00AF01A401A5011C30A600A301B001A101AD
:10016E00513083168100951615168B160B178312B8
:10017E00901083160C14383083128E00FC308F00D2
:10018E0010148B17A901A801A7013C20851AD428A9
:10019E005C30AD000130AE00D828AE30AD0003307B
:1001AE00AE002509B5002830B6000130B700482052
:1001BE003508D005031936290130B60075205008D0
:1001CE00AB005108AC002408003CFF30031800308F
:1001DE00D30000305102031DF62815305002FF30B7
:1001EE0003180030D20052085305D0002308D00562
:1001FE0003190929A401FF30A5003008AA000A300E
:10020E00A20035292E082C02031D0F292D082B02C2
:10021E0003181729FF30240203181629A40A2829C7
:10022E002C082E02031D1D292B082D020318282928
:10023E002408003C03182429A4038312051A282934
:10024E00A4012730B6002608B70048205008A300A6
:10025E00500803193329A601F030B3004D292508A3
:10026E0003194D292A30B6006430B70048205008D3
:10027E0003194D29A2032208003A031D4D29A50199
:10028E003008A7000E30A600A301A4012408FF3AEF
:10029E00FF30031D0030D1002408003AFF30031D4B
:1002AE000030D0005108D004031977298312051AA3
:1002BE0062295414632954102408003AFF30031D98
:1002CE000030D100D0015418D00A5108D0050319BE
:1002DE0075290130A100F030B30077298030B300CA
:1002EE003409D00003197F29FF30B4003008A9006B
:1002FE002930B6003308B70048203408D00503195A
:10030E0094292108003C03188D29A1032108003AE5
:0E031E00031D9429831204308506D8289529E2
:02400E00D431AB
:00000001FF
