:02000000632873
:10000800DF00030E8301AA000A08A7008A0150082E
:10001800A0000B1D26288312051C20282308A600F3
:100028002308003A031D1B28733081001F28260867
:10003800FF3C8100051024282608733E8100051422
:100048000B11362883120C1C3628A40A17308E0090
:10005800FC308F0024082502031835280430850653
:10006800A4010C100B1C442885193F282930A10035
:100078000130A20043282330A1000330A2000B1056
:100088002008D00027088A002A0E8300DF0E5F0EA2
:0200980009005D
:10009A000D308312DC00FB30DD00DD0B5228DC0B57
:0800AA005228000000000800CC
:1000B20083129F149F185B281E08A90083161E082E
:0400C200A80008008A
:1000C600073083129900123083169F00051085149D
:1000D6000511831205110514FA30A500A601A30126
:1000E600A4015030831681008B16853083129F0041
:1000F6000B171016901083160C14173083128E00EF
:10010600FC308F00A801A901831696158B158B1755
:1001160083121F1410149F144D2085199728293017
:10012600A1000130A2009B282330A1000330A200C9
:10013600592029082202031DA22828082102031893
:10014600C7282308003C0318AA28A303AB28C628FF
:1001560059201D302107D10022080318013ED20084
:1001660029085202031DB928280851020318BD2880
:10017600A301592029082202031DC32828082102A9
:100186000318C628A428F82822082902031DCD280A
:10019600210828020318F8288C3023020318D528D2
:1001A600A30AD628F82859201D302107D100220895
:1001B6000318013ED20029085202031DE42828082C
:1001C60051020318EF28A30CA313A30CA313A30C2B
:1001D600A313A30CA313592022082902031DF528F3
:1001E600210828020318F828CF282908003AFF30EA
:1001F600031D0030D1002808113CFF30031C0030DD
:10020600D0005108D00503190B294030A500142948
:1002160023088C3A031D12298030A5001429F030DA
:06022600A5009B2815292C
:02400E00D431AB
:00000001FF
