:02000000652871
:10000800DF00030E8301A8000A08AB008A0150082C
:10001800A0000B1D282883120130A506051C2328E3
:100028002308A2002308003A031D1D282208810086
:1000380022282208FF3C8100851205102728220863
:100048008100051485160B1183120C1C3828A40A8C
:1000580017308E00FC308F0024082102031837283F
:1000680004308506A4010C100B1C4628851941286C
:100078002930A6000130A70045282330A600033008
:10008800A7000B102008D0002B088A00280E830038
:06009800DF0E5F0E0900FF
:10009E000D308312DC00FB30DD00DD0B5428DC0B51
:0800AE005428000000000800C6
:1000B60083129F149F185D281E08AA0083161E0827
:0400C600A900080085
:1000CA003430831690000730831299000230831669
:1000DA009F00853083129F00831605108514051131
:1000EA0085128312051105148512FA30A100A201A6
:1000FA00A301A401A5105130831681008B160B179A
:10010A0083121016901083160C14173083128E0067
:10011A00FC308F00831696158B15A901AA018B173F
:10012A0083121F1410149F144F208519A1282930F7
:10013A00A6000130A700A5282330A6000330A70097
:10014A005B202A082702031DAC2829082602FF3053
:10015A0003180030D300A518B4285414B528541035
:10016A0026082902D0002708031C013E2A02D100D2
:10017A0000305102031DC32812305002FF30031C05
:10018A000030D200D0015418D00A52085005D100CC
:10019A00D001A518D00A5108D0045308D005031974
:1001AA00DD28A5102308003C0318DC28A303132923
:1001BA002A082702031DE32829082602FF30031C08
:1001CA000030D30029082602D0002A08031C013E69
:1001DA002702D10000305102031DF52812305002C7
:1001EA00FF30031C0030D200D001A518D00A5208F3
:1001FA005005D100A5180329031404290310D001BE
:10020A000318D00A5108D0045308D005031913293A
:10021A00A514FF30230203181329A30A251C162943
:10022A00A5282A08003AFF30031D0030D10029080A
:10023A00113CFF30031C0030D0005108D0050319CF
:10024A0029294030A10032292308FF3A031D302909
:0E025A008030A1003229F030A100A528332900
:02400E00D431AB
:00000001FF
