:02000000632873
:10000800DF00030E8301A8000A08A9008A0150082E
:10001800A0000B1D26288312051C21282308A200F6
:100028002308003A031D1B282208810020282208E3
:10003800FF3C81008512051025282208810005143F
:1000480085160B1183120C1C3628A60A17308E0051
:10005800FC308F0026082102031835280430850655
:10006800A6010C100B1C442885193F282930A40030
:100078000130A50043282330A4000330A5000B104D
:100088002008D00029088A00280E8300DF0E5F0EA2
:0200980009005D
:10009A000D308312DC00FB30DD00DD0B5228DC0B57
:0800AA005228000000000800CC
:1000B20083129F149F185B281E08AB0083161E082C
:0400C200AA00080088
:1000C600343083169000073083129900023083166D
:1000D6009F00853083129F00831605108514051135
:1000E60085128312051105148512FA30A100A201AA
:1000F600A301A60127105130831681008B160B171A
:1001060083129016901083160C14173083128E00EB
:10011600FC308F00831696158B15AA01AB018B1741
:1001260083121F1410149F144D2085199F282930FF
:10013600A4000130A500A3282330A4000330A500A5
:1001460059202B082502031DAA282A082402FF305D
:1001560003180030D3002718B2285414B3285410BB
:1001660024082A02D0002508031C013E2B02D100D8
:1001760000305102031DC1280F305002FF30031C0E
:100186000030D200D0015418D00A52085005D100D0
:10019600D0012718D00A5108D0045308D0050319F6
:1001A600DD2827102308003C0318DB28A303DC28DE
:1001B600A328152925082B02031DE32824082A0253
:1001C600FF3003180030D3002A082402D0002B0881
:1001D600031C013E2502D10000305102031DF52803
:1001E6000F305002FF30031C0030D200D001271818
:1001F600D00A52085005D1002718032903140429F0
:100206000310D0010318D00A5108D0045308D005B2
:10021600031915292714FF30230203181429A30AEA
:100226001529A3282B08003AFF30031D0030D10002
:100236002A08113CFF30031C0030D0005108D005BD
:10024600031928294030A10031292308FF3A031D4C
:100256002F298030A1003129F030A100A3283229AE
:02400E00D431AB
:00000001FF
