:020000009F2837
:10000800DF00030E8301AF000A08B0008A01500820
:10001800A0000B1D24288312051C20282108A600F7
:100028002108003A031D1B28260881001F282608DE
:10003800FF3C8100051023282608810005140B11B8
:1000480083120C1C2D28AE0A38308E00FC308F002D
:100058000C102008D00030088A002F0E8300DF0E15
:040068005F0E09001E
:0C006C0007308312DD00DD0B392808008E
:100078000D308312DC00FB30DD00DD0B4128DC0B8A
:080088004128000000000800FF
:1000900083123408003C031869282E08D200330864
:1000A000840000082E02031C5A283308840000082C
:1000B000D2026228330884000008FF3CD000D00A36
:1000C0005008D20734085202FF30031C0030D10020
:1000D0006B28FF30D10051080319722833088400BF
:0A00E0002E0880005108D00008002F
:1000EA00C33083129F05F0309F05F03083169F04BA
:1000FA0083129F173308D000D00D5010D00D501026
:10010A0050089F041F1436209F149F1C8E2800003D
:10011A008A281F101E08D100D00183161E08500419
:10012A00B4005108B5000030B5043408D0003508D1
:04013A00D1000800E8
:10013E00073083129900023083169F000510851434
:10014E000511831205110514FA30A400FF30A50025
:10015E00A601A101A2011C30A300AA01AE01D1305B
:10016E00831681008B160B178312901083160C14B6
:10017E00383083128E00FC308F0010148B17A901BB
:10018E00A801A7013C202209B2002830B30001309B
:10019E00B40048203208D005031924290130B300D9
:1001AE0075205008AC005108AD002108003CFF300E
:1001BE0003180030D30000305102031DE82815301B
:1001CE005002FF3003180030D20052085305D00001
:1001DE002A08D0050319FB28A101FF30A2002E0822
:1001EE00AB000A30B100232903302D02031D012973
:1001FE00AE302C0203180929FF30210203180829FA
:10020E00A10A16292D08033C031D0F292C08AE3C0C
:10021E00031816292108003C03181629A1032730BC
:10022E00B3002308B40048205008AA005008031950
:10023E002129A301F030A4003B29220803193B29F0
:10024E002B30B3006430B4004820500803193B290A
:10025E00B1033108003A031D3B29A2012E08A70065
:10026E000E30A300AA01A1012108FF3AFF30031DA1
:10027E000030D1002108003AFF30031D0030D000BD
:10028E005108D00403194D298030A4002509D0004F
:10029E0003195529FF30A5002E08A9002930B300F7
:1002AE002408B40048202508D0050319602904301D
:0602BE008506CA28612933
:02400E00D431AB
:00000001FF
