:02000000A12835
:10000800DF00030E8301B3000A08B4008A01500818
:10001800A0000B1D26288312051C21282708A600EE
:100028002708003A031D1B282608810020282608D7
:10003800FF3C81008512051025282608810005143B
:1000480085160B1183120C1C2F28B20A38308E002B
:10005800FC308F000C102008D00034088A00330EC2
:080068008300DF0E5F0E0900AA
:0C00700007308312DD00DD0B3B28080088
:10007C000D308312DC00FB30DD00DD0B4328DC0B84
:08008C004328000000000800F9
:1000940083123708003C03186B283208D200360854
:1000A400840000083202031C5C283608840000081F
:1000B400D2026428360884000008FF3CD000D00A2D
:1000C4005008D20737085202FF30031C0030D10019
:1000D4006D28FF30D10051080319742836088400B4
:0A00E400320880005108D000080027
:1000EE00C33083129F05F0309F05F03083169F04B6
:1000FE0083129F173608D000D00D5010D00D50101F
:10010E0050089F041F1438209F149F1C9028000035
:10011E008C281F101E08D100D00183161E08500413
:10012E00B7005108B8000030B8043708D0003808BE
:04013E00D1000800E4
:10014200073083129900023083169F000510851430
:10015200051185128312051105148512FA30B100BA
:10016200FF30A500A601A701A4013830A100A20119
:10017200B201A30151308316810015168B160B179D
:100182008312901083160C14383083128E00FC30C8
:100192008F0010148B17AB01AA01A9013E20831214
:1001A2008519D8282930AF000130B000DC2823306F
:1001B200AF000330B0002409B5002A30B600B70101
:1001C2004A203508D005031939290130B6007720B5
:1001D2005008AD005108AE002708003CFF3003185C
:1001E2000030D30000305102031DF92811305002B3
:1001F200FF3003180030D20052085305D000220805
:10020200D00503190C29A701FF30A4003208AC0065
:100212000A30A800382930082E02031D12292F089F
:100222002D0203181A29FF30270203181929A70AD9
:100232002B292E083002031D20292D082F02031816
:100242002B292708003C03182729A7038312051A24
:100252002B29A7012930B6002108B7004A205008EF
:10026200A200500803193629A101F030B10050292B
:100272002408031950292C30B6006430B7004A20F4
:10028200500803195029A8032808003A031D5029D1
:10029200A4013208A9001C30A100A201A70127086D
:1002A200FF3AFF30031D0030D1002708003AFF302B
:1002B200031D0030D0005108D00403197A2983129B
:1002C200051A65295414662954102708003AFF308C
:1002D200031D0030D100D0015418D00A5108D005B6
:1002E200031978290130A300F030B1007A29803057
:1002F200B1002509D00003198229FF30A500320878
:10030200AB002B30B6003108B7004A202508D005D3
:10031200031997292308003C03189029A3032308F3
:10032200003A031D9729831204308506D0289829A4
:02400E00D431AB
:00000001FF
