:020000006D2869
:10000800DF00030E8301A8000A08A7008A01500830
:10001800A0000B1D26288312051C21282308A200F6
:100028002308003A031D1B282208810020282208E3
:10003800FF3C81008512051025282208810005143F
:1000480085160B1183120C1C3628A60A17308E0051
:10005800FC308F0026082102031835280430850655
:10006800A6010C100B1C442885193F282930A40030
:100078000130A50043282330A4000330A5000B104D
:100088002008D00027088A00280E8300DF0E5F0EA4
:0200980009005D
:0C009A0007308312DD00DD0B5028080049
:1000A6000D308312DC00FB30DD00DD0B5828DC0B45
:0800B6005828000000000800BA
:1000BE0083121F1864281F144D209F149F18652843
:0C00CE001E08AA0083161E08A9000800E6
:1000DA003430831690000730831299000230831659
:1000EA009F00051085140511851283120511051448
:1000FA008512FA30A100A201A301A601503083168D
:10010A0081008B16853083129F000B1710169010F2
:10011A0083160C14173083128E00FC308F0083165E
:10012A0096158B15A901AA018B1783121F14101497
:10013A009F1453208519A6282930A4000130A50050
:10014A00AA282330A4000330A5005F202A0825022C
:10015A00031DB128290824020318D5282308003CC6
:10016A000318B928A303BA28D42883128519C428E6
:10017A008930DD00DD0BBF2800000000CA283230BC
:10018A00DD00DD0BC628000000005F202A082502DA
:10019A00031DD128290824020318D428B328FE28CD
:1001AA0025082A02031DDB28240829020318FE2831
:1001BA00FF3023020318E328A30AE428FE28831247
:1001CA008519EE288930DD00DD0BE92800000000E2
:1001DA00F4283230DD00DD0BF028000000005F203B
:1001EA0025082A02031DFB28240829020318FE28D1
:1001FA00DD282A08003AFF30031D0030D100290803
:10020A00113CFF30031C0030D0005108D0050319FF
:10021A0011294030A1001A292308FF3A031D182981
:0E022A008030A1001A29F030A100AA281B295B
:02400E00D431AB
:00000001FF
