:02000000712865
:10000800DF00030E8301AC000A08AD008A01500826
:10001800A0000B1D26288312051C21282708A600EE
:100028002708003A031D1B282608810020282608D7
:10003800FF3C81008512051025282608810005143B
:1000480085160B1183120C1C4428A80A17308E0041
:10005800FC308F002808250203183528043085064F
:10006800A801AE0A2E08FF3A031D4328AB0A2B0845
:100078000C3A031D4328211C4228A701AB010C1090
:100088000B1C522885194D282930A3000130A400E3
:1000980051282330A3000330A4000B102008D000FF
:0E00A8002D088A002C0E8300DF0E5F0E09006B
:1000B6000D308312DC00FB30DD00DD0B6028DC0B2D
:0800C6006028000000000800A2
:1000CE0083129F149F1869281E08AA0083161E0803
:0400DE00A90008006D
:1000E200073083129900023083169F000510851491
:1000F200051185128312051105148512FA30A50027
:10010200A601A701A80121105030831681008B1689
:10011200853083129F000B171016901083160C1453
:10012200173083128E00FC308F00A901AA018316BA
:1001320096158B158B1783121F1410149F145B20B6
:100142008519A8282930A3000130A400AC28233047
:10015200A3000330A40067202A082402031DB32849
:10016200290823020318FE282708003C0318BB288D
:10017200A703BC28FD2883128519DA28A20167206B
:100182001D302307D10024080318013ED2002A089B
:100192005202031DCE28290851020318D328A701B1
:1001A2006720D9282208053A0319D928A20AC028AB
:1001B200F428A20167201D302307D1002408031868
:1001C200013ED2002A085202031DE92829085102E1
:1001D2000318EE28A7016720F4282208003A031921
:1001E200F428A20ADB282A082402031DFA28290877
:1001F20023020318FD28B5285D2924082A02031DBD
:1002020004292308290203185D29FF302702031855
:100212000D29A70A21100F2921145D29831285199E
:100222003429A20167201D302307D10024080318B6
:10023200013ED2002A085202031D21292908510237
:1002420003182D29A70CA713A70CA713A70CA713F4
:10025200A70CA713672033292208053A031933296B
:10026200A20A13295429A20167201D302307D100B5
:1002720024080318013ED2002A085202031D432912
:100282002908510203184E29A70CA713A70CA7137C
:10029200A70CA713A70CA71367202208003A03197B
:1002A2005429A20A352924082A02031D5A2923089F
:1002B200290203185D2906292A08003AFF30031D86
:1002C2000030D1002908113CFF30031C0030D0005F
:1002D2005108D005031970294030A5007929270853
:1002E200FF3A031D77298030A5007929F030A50057
:0402F200AC287A2991
:02400E00D431AB
:00000001FF
